:020000040800F2
:10000000780600203902000877020008790200080B
:100010007B0200087D0200087F020008000000004B
:100020000000000000000000000000008102000845
:100030008302000800000000850200088702000813
:100040008902000889020008890200088902000864
:100050008902000889020008890200088902000854
:100060008902000889020008890200088902000844
:100070008902000889020008890200088902000834
:100080008902000889020008890200088902000824
:100090008902000889020008890200088902000814
:1000A0008902000889020008890200088902000804
:1000B0008902000889020008590400088902000822
:1000C00089020008890200088902000889020008E4
:1000D00089020008890200088902000889020008D4
:1000E00089020008890200088902000889020008C4
:1000F00089020008890200088902000889020008B4
:1001000089020008890200088902000889020008A3
:100110008902000889020008890200088902000893
:100120008902000889020008890200088902000883
:100130008902000889020008890200088902000873
:100140008902000889020008890200088902000863
:100150008902000889020008890200088902000853
:100160008902000889020008890200088902000843
:1001700089020008890200088902000800000000C6
:10018000890200088902000800F002F800F044F833
:1001900014A696E8000CB244B344DA4501D100F04D
:1001A0003BF8BAE80F000FA696E83000A5EB04056F
:1001B00004EB0607AAEB0704A7F101074FEA1515A0
:1001C0004FEA3414A4F10104AC4201D300F024F846
:1001D00013F0010F18BFFB1A43F0010300F001F800
:1001E000DBE71847E8050000F8050000704700004D
:1001F0000023002400250026103A28BF78C1FBD830
:10020000520728BF30C148BF0B6070471FB500F0D0
:10021000CFFA1FBD10B510BD00F057F81146FFF71B
:10022000F5FF00F067FA00F075F803B4FFF7F2FF8E
:1002300003BC00F07DF8000017481849184B99429C
:100240003CBF50F8042B41F8042BF8D3154B16494A
:100250004FF000028B4238BF43F8042BFAD3DFF88B
:100260004C00016841F470010160BFF34F8FBFF390
:100270006F8F0F480047FEE7FEE7FEE7FEE7FEE769
:10028000FEE7FEE7FEE7FEE7FEE7000009480A4951
:100290000A4A0B4B70470000DC07000800000020F2
:1002A00000000020000000207806002088ED00E01B
:1002B00089010008780000207806002078020020DC
:1002C00078020020704770477047754600F02CF8A0
:1002D000AE4605006946534620F00700854618B033
:1002E00020B5FFF7D3FFBDE820404FF000064FF0E8
:1002F00000074FF000084FF0000BAC46ACE8C00917
:10030000ACE8C009ACE8C009ACE8C00921F00701BD
:100310008D46704710B50446AFF300802046BDE817
:100320001040FFF782BF0000004870470000002027
:1003300001491820ABBEFEE726000200704700000E
:1003400080B582B041F24C01C4F20201086840F06D
:100350000200086040F20041C4F60001086820F481
:1003600040500860086840F40050086040F20C41BA
:10037000C4F60001086820F44050086040F22041B3
:10038000C4F60001086820F070600860086840F05A
:100390000070086041F25801C4F20201086840F0A0
:1003A0000400086040F62801C4F200010F20086034
:1003B00040F62C01C4F200014FF6FF70086040F6D1
:1003C0000001C4F200010191086840F0800008605B
:1003D00040F61801C4F20001086820F0030008602C
:1003E000086840F00100086040F62001C4F20001F6
:1003F000086840F001000860086840F002000860EA
:10040000086840F00800086040F60C01C4F20001E2
:10041000086840F203221043086040F61401C4F259
:100420000001086840F00100086040F61001C4F2C5
:100430000001086820F0010008601E20009000F014
:100440001FF90098022100F033F90199086840F083
:100450000100086002B080BD40F61000C4F2000048
:100460000068C00700B3FFE740F27000C2F200006E
:1004700001680131016040F61002C4F20002116807
:1004800021F001011160006803280CD3FFE740F25E
:100490007001C2F200010020086040F26801C2F25F
:1004A00000010860FFE7FFE740F61000C4F200001B
:1004B00000688007002847D5FFE740F63400C4F203
:1004C0000000006840F26001C2F20001086040F2E2
:1004D0006800C2F200000068B8B9FFE740F26000AF
:1004E000C2F20000006840F26C01C2F20001086034
:1004F00040F27001C2F200010020086040F2680181
:10050000C2F20001012008601DE040F26000C2F26A
:100510000000006840F26C01C2F200010968401A54
:1005200040F27001C2F20001096800EB014040F2A4
:100530007401C2F20001086040F26801C2F20001D9
:1005400000200860FFE7FFE77047000041F24C0120
:10055000C4F20201086840F0010008604FF09041C9
:10056000086820F440200860086840F40020086013
:100570000C21C4F60001086820F440200860042122
:10058000C4F60001086820F4007008600821C4F671
:100590000001086820F440200860086840F400204A
:1005A00008602421C4F60001086820F0F00008600B
:1005B000086840F01000086041F26001C4F20201D6
:1005C000086840F40060086042F62841C4F2010166
:1005D0000F20086042F62C41C4F201014FF6FF7073
:1005E000086042F60041C4F20101086840F0800052
:1005F000086042F63842C4F201020A20106042F656
:100600001842C4F20102106848F6FF73CFF6FF6388
:1006100018401060106840F4C0401060106840F44A
:100620000060106042F62042C4F20102106840F0FF
:100630001000106042F64442C4F20102106840F417
:100640000C40106042F61442C4F20102106840F0FF
:100650000100106042F60C42C4F20102106840F042
:100660000100106042F61042C4F20102106820F04E
:1006700001001060086840F0010008607047000049
:1006800081B08DF803009DF9030000280ED4FFE728
:100690009DF9031001F01F02012090404A094EF21B
:1006A0000011CEF2000141F82200FFE701B07047CF
:1006B00082B08DF8070000919DF9070000280AD448
:1006C000FFE7009800019DF907104EF20042CEF2BC
:1006D000000288540BE0009800019DF8071001F01B
:1006E0000F014EF61452CEF200028854FFE702B01A
:1006F0007047000080B582B00020019041F20001F7
:10070000C4F20201086840F480700860FFE741F21B
:100710000000C4F2020000684005002801D4FFE791
:10072000F5E741F20801C4F20201086820F0030075
:100730000860086840F001000860FFE741F2080027
:10074000C4F20200006810F00C0F01D1FFE7F5E7DA
:10075000FFF7F6FDFFF7FAFEFFE740F27400C2F282
:100760000000006850B1FFE740F27400C2F20000E0
:10077000006849F27141884207D3FFE740F2640103
:10078000C2F200010020086011E040F27400C2F2E1
:10079000000000684CF60931C8F63D51A0FB01107D
:1007A000400940F26401C2F200010860FFE7D4E7AB
:1007B000F1EE100A4FF6FF71C0F2C03120EA0100DD
:1007C00040F04070E1EE100A70470000DC070008BE
:0C07D0000000002078060000F001000886
:040000050800018965
:00000001FF
