:020000040800F2
:100000006006002039020008770200087902000823
:100010007B0200087D0200087F020008000000004B
:100020000000000000000000000000008102000845
:100030008302000800000000850200088702000813
:100040008902000889020008890200088902000864
:100050008902000889020008890200088902000854
:100060008902000889020008890200088902000844
:100070008902000889020008890200088902000834
:100080008902000889020008890200088902000824
:100090008902000889020008890200088902000814
:1000A0008902000889020008890200088902000804
:1000B00089020008890200088902000889020008F4
:1000C00089020008890200088902000889020008E4
:1000D00089020008890200088902000889020008D4
:1000E00089020008890200088902000889020008C4
:1000F00089020008890200088902000889020008B4
:1001000089020008890200088902000889020008A3
:100110008902000889020008890200088902000893
:100120008902000889020008890200088902000883
:100130008902000889020008890200088902000873
:100140008902000889020008890200088902000863
:100150008902000889020008890200088902000853
:100160008902000889020008890200088902000843
:1001700089020008890200088902000800000000C6
:10018000890200088902000800F002F800F044F833
:1001900014A696E8000CB244B344DA4501D100F04D
:1001A0003BF8BAE80F000FA696E83000A5EB04056F
:1001B00004EB0607AAEB0704A7F101074FEA1515A0
:1001C0004FEA3414A4F10104AC4201D300F024F846
:1001D00013F0010F18BFFB1A43F0010300F001F800
:1001E000DBE71847F0030000000400007047000040
:1001F0000023002400250026103A28BF78C1FBD830
:10020000520728BF30C148BF0B6070471FB500F0D0
:10021000D4F91FBD10B510BD00F057F81146FFF717
:10022000F5FF00F075F900F075F803B4FFF7F2FF81
:1002300003BC00F07DF8000017481849184B99429C
:100240003CBF50F8042B41F8042BF8D3154B16494A
:100250004FF000028B4238BF43F8042BFAD3DFF88B
:100260004C00016841F470010160BFF34F8FBFF390
:100270006F8F0F480047FEE7FEE7FEE7FEE7FEE769
:10028000FEE7FEE7FEE7FEE7FEE7000009480A4951
:100290000A4A0B4B70470000E405000800000020EC
:1002A00000000020000000206006002088ED00E033
:1002B0008901000860000020600600206002002024
:1002C00060020020704770477047754600F02CF8B8
:1002D000AE4605006946534620F00700854618B033
:1002E00020B5FFF7D3FFBDE820404FF000064FF0E8
:1002F00000074FF000084FF0000BAC46ACE8C00917
:10030000ACE8C009ACE8C009ACE8C00921F00701BD
:100310008D46704710B50446AFF300802046BDE817
:100320001040FFF782BF0000004870470000002027
:1003300001491820ABBEFEE726000200704700000E
:1003400041F24C01C4F20201086840F0010008606B
:100350004FF09041086820F440600860086840F45D
:10036000006008602021C4F60001086820F47000D5
:100370000860086840F4801008600821C4F6000195
:10038000086820F440600860086840F40060086075
:100390000C21C4F60001086820F440600860704732
:1003A00041F24C01C4F20201086840F0010008600B
:1003B0004FF09041086820F003000860086840F0A2
:1003C000020008602021C4F60001086820F00F0038
:1003D0000860086840F0020008600821C4F60001C7
:1003E000086820F003000860086840F00200086018
:1003F0000C21C4F60001086820F003000860704773
:1004000041F25801C4F20201086840F0010008609E
:100410004FF08041086820F0100008602822C4F2E4
:100420000002032010602C22C4F2000240F2F310FC
:1004300010601822C4F2000210684FF68F73CFF6D6
:10044000FE7318401060106840F060001060106883
:1004500040F0080010602022C4F20002106820F072
:1004600002001060106840F0010010603422C4F2F5
:100470000002FA201060086840F001000860704730
:1004800041F25801C4F20201086840F00800086017
:1004900040F60041C4F20001086820F01000086036
:1004A00040F62842C4F200020320106040F62C42BD
:1004B000C4F2000244F61F60106040F61842C4F215
:1004C000000210684FF68F73CFF6FE73184010606D
:1004D000106840F060001060106840F00800106084
:1004E00040F62042C4F20002106820F002001060C2
:1004F000106840F00100106040F63442C4F200027F
:1005000040F2DC501060086840F00100086070475D
:1005100080B584B000200390019001200090FFF787
:100520000FFFFFF73DFFFFF76BFFFFF7A9FFFFE7A7
:1005300001983421C4F20001086001984FF4FA6177
:10054000484346F63931C2F2D50150FB01F188111A
:1005500000EBD17000F52F7040F63441C4F2000179
:100560000860009800EB8001019800EB41000190C9
:100570000198B0F5F97F07DDFFE740F2F310019035
:100580004FF0FF30009009E00198002805DCFFE7FC
:100590000020019001200090FFE7FFE7002002907B
:1005A000FFE7029840F6B731884205DCFFE7FFE736
:1005B000029801300290F4E7BAE7F1EE100A4FF624
:1005C000FF71C0F2C03120EA010040F04070E1EE5E
:1005D000100A7047E40500080000002060060000D3
:0405E000F00100081E
:040000050800018965
:00000001FF
