:020000040800F2
:10000000900B0020010300083F0300084103000893
:1000100043030008450300084703000800000000F0
:10002000000000000000000000000000490300087C
:100030004B030008000000004D030008B11E00083B
:100040005103000851030008510300085103000840
:100050005103000851030008510300085103000830
:100060005103000851030008510300085103000820
:1000700051030008510300089916000851030008B5
:1000800051030008C9160008510300085103000875
:1000900051030008510300085103000851030008F0
:1000A00051030008510300085103000851030008E0
:1000B00051030008510300085103000851030008D0
:1000C00051030008510300085103000851030008C0
:1000D0005103000895240008E52400085103000896
:1000E00051030008510300085103000851030008A0
:1000F0005103000851030008510300085103000890
:10010000510300085103000851030008510300087F
:10011000510300085103000851030008510300086F
:10012000510300085103000851030008510300085F
:10013000510300085103000851030008510300084F
:10014000510300085103000851030008510300083F
:10015000510300085103000851030008510300082F
:10016000510300085103000851030008510300081F
:10017000510300085103000851030008000000006B
:10018000510300085103000800F002F800F0A8F83D
:1001900014A696E8000CB244B344DA4501D100F04D
:1001A0009FF8BAE80F000FA696E83000A5EB04050B
:1001B00004EB0607AAEB0704A7F101074FEA1515A0
:1001C0004FEA3414A4F10104AC4201D300F088F8E2
:1001D00013F0010F18BFFB1A43F0010300F001F800
:1001E000DBE71847203E0000403E0000103A24BFE5
:1001F00078C878C1FAD8520724BF30C830C144BF8C
:1002000004680C6070470000704700000023002461
:1002100000250026103A28BF78C1FBD8520728BF16
:1002200030C148BF0B6070476E2900F015827029FD
:1002300000F05B83662903F0BF85652903F0BC8568
:10024000672903F0B985612903F0B88503681B0AA3
:1002500028BF41F08001692900F0C281642900F0C3
:10026000BF81752900F0BC816F2900F0E9827829EF
:1002700000F02783E92900F08382E42900F08082DE
:10028000F52900F07D82EF2900F0E682F82900F0E0
:1002900026830368DB0928BF41F08001632901F050
:1002A0006280732901F06780E32901F07280F329ED
:1002B00001F07780002070471FB503F070FD01F05A
:1002C000C5F804000020002103F0E2FA401C606041
:1002D0000020002103F0C6FAE0601FBD10B510BD7C
:1002E00001F087F81146FFF7E7FF02F09DFA01F0F1
:1002F00063F903B4FFF7F2FF03BC01F0ABF90000B0
:1003000017481849184B99423CBF50F8042B41F844
:10031000042BF8D3154B16494FF000028B4238BF1F
:1003200043F8042BFAD3DFF84C00016841F4700164
:100330000160BFF34F8FBFF36F8F0F480047FEE799
:10034000FEE7FEE7FEE7FEE7FEE7FEE7FEE7FEE785
:10035000FEE7000009480A490A4A0B4B70470000B3
:100360005041000800000020080000200800002084
:10037000900B002088ED00E0890100089005002026
:10038000900B002090070020900700200FB41CB5B0
:10039000084B06AA7B4469460090059800F075F961
:1003A00004460020694600F083F920461CBC5DF835
:1003B00014FB00001903000010B5431C02E010F804
:1003C000011B71B18107FAD14FF0013202C88C1ABA
:1003D0008C4314EAC211F9D0C01A0A0603D0C01E19
:1003E00010BDC01A10BD0A0401D0801E10BD090244
:1003F000FCD0401E10BD40EA010370B59B072ED112
:100400004FF00136042A2AD308C810C99D1B9D430A
:10041000121F15EAC61517D0D8B2E1B2401A50EA39
:10042000056110D198B2A1B2401A50EA05410AD133
:1004300023F07F4024F07F41401A50EA052102D189
:10044000180EA0EB146070BDA342DBD018BA21BA1D
:10045000884201D9012070BD4FF0FF3070BD0AB94C
:10046000002070BD10F8013B11F8014B63B1A342AD
:100470000AD1521E08D010F8013B11F8014B1BB1F4
:10048000A34201D1521EEDD1181B70BD032A40F2C8
:10049000308010F0030C00F0158011F8013BBCF126
:1004A000020F624498BF11F801CB00F8013B38BF3E
:1004B00011F8013BA2F1040298BF00F801CB38BF4C
:1004C00000F8013B11F0030300F0E182083AC0F0AC
:1004D000088051F8043B083A51F804CBA0E8081012
:1004E000F5E7121D5CBF51F8043B40F8043BAFF345
:1004F0000080D20724BF11F8013B11F801CB48BF9F
:1005000011F8012B24BF00F8013B00F801CB48BFD4
:1005100000F8012B704770477047704770B504466C
:1005200085690068C10601D5302600E02026C00795
:1005300007D070BDD4E9012130469047206A401CA5
:1005400020626D1EF6D570BD70B5044685690078D1
:10055000C00707D170BDD4E9012120209047206A4F
:10056000401C20626D1EF6D570BD09684A0501D594
:1005700040B27047C905FCD500B2704709684A050A
:1005800001D5C0B27047C905FCD580B2704770B5BF
:100590000C460546012A05D02878800600D5EA6970
:1005A000002302E0012305E05B1C934202D2E05CE1
:1005B0000028F9D1A869E618C01AA861286A184469
:1005C00028622846FFF7AAFF04E0D5E9012114F8C4
:1005D000010B9047B442F8D32846FFF7B5FF70BD32
:1005E0002DE9F0410646002410687529314616A50C
:1005F00010D0FFF7BAFF002802DA404213A507E047
:1006000031688A0701D512A502E0490704D511A572
:10061000012401E0FFF7B2FF00210A2206F12407BE
:1006200009E0B0FBF2FCB0FBF2F302FB1C0030303F
:1006300078541846491C0028F3D123462A463046F0
:10064000BDE8F04100F09ABA000000002D00000063
:100650002B0000002000000011680268006A5305AA
:1006600001D508700AE0D30501D5088006E013061D
:1006700003D5C217C1E9000200E0086001207047FD
:1006800001694A1C02610878704700B58FB0CDE956
:1006900001310021059105497944CDE90310114646
:1006A000684600F02DF90FB000BD0000E5FFFFFF28
:1006B0000A6802F8010B0A60704700002DE9FF5F2D
:1006C00015468A460446DFF8AC80F8440027D8E98E
:1006D00000103E46CDE9001010E03AF816106A46C8
:1006E00002A800F062FE411C07D02178890603D5DC
:1006F000E269391891420DD80744761C20788006AB
:1007000002D5E069B84205DDAE42E6DB3AF81600F4
:100710000028E2D1A069C01BA0612046FFF7FEFEC1
:10072000D8E90010CDE90010002017E03AF81810C1
:100730006A4602A800F039FEB0F1FF3F81460BD0B7
:1007400000250DF1080B05E0D4E901211BF8050097
:1007500090476D1C4D45F7D308F10100B04280462B
:10076000E4DB206A384420622046FFF7EDFE00F00B
:1007700003B80000F23600003FBCBDE8C09F000097
:100780002DE9F0418046D21D22F007020025D2E972
:100790000002F52915A614D0011E72F1000106DA37
:1007A0000023D0EB030063EB020211A608E0D8F8A7
:1007B00000108B0701D50FA602E0490701D50EA650
:1007C00001251146002408F1240704E000F091F906
:1007D00030323A55641C50EA0102F7D12B463246BA
:1007E00021464046BDE8F04100F0C8B900000000D5
:1007F0002D0000002B0000002000000030B400217C
:1008000000F1240408E002F00705D208303542EA7E
:100810004372DB086554491C52EA0305F3D10468AE
:10082000002310A2250708D504F020040C4304D0AF
:10083000C46901230CA2641EC46130BC00F09EB9DF
:1008400010B5044621461068FFF798FE0246204680
:10085000BDE810400023D1E7D21D22F00701D1E905
:100860000023CBE70000000030000000F0B40D468C
:100870000188090502D5214C7C4402E01F4C7C44D0
:100880000E34002100F1240608E002F00F071209DF
:10089000E75D42EA03721B097754491C52EA0307D9
:1008A000F3D102780023120704D5702D06D009B1C8
:1008B000022311342246F0BC00F060B90123103449
:1008C000F8E770B504460D4621461068FFF756FE5E
:1008D000024629462046BDE870400023C6E7D21DE7
:1008E00022F00703D3E90023C0E70368126843F04E
:1008F000200303600823C3610023B7E74C350000E1
:100900002DE9F05F894604464FF0000ADFF874B124
:10091000FB44C0F820A02046E1688847002874D036
:10092000252806D0D4E901219047206A401C206286
:10093000F1E700265F462046E16888472028054603
:1009400007DB312D05D2781910F8200C08B10643C9
:10095000F1E7B00701D526F00406C4F81CA0002773
:10096000C4F818A02A2D09D0284602F073FF38B326
:1009700004EB8708303DC8F8185019E059F8041BFB
:10098000204604EB87029161E1688847012F054604
:1009900018D1E069002820DA26F020061DE0D8F8FA
:1009A000180000EB800005EB40003038C8F8180054
:1009B0002046E1688847054602F04CFF0028EED14A
:1009C000012F0AD02E2D08D12046E16888477F1CD0
:1009D0000546022F46F02006C4DBA069002803DA92
:1009E000404246F00106A061F00701D026F0100653
:1009F0006C2D0BD0682D09D04C2D39D06A2D35D0F7
:100A0000742D35D07A2D33D016E038E0E1682F46CA
:100A100020468847B842054609D16C2F26D04FF4AE
:100A20008060E168064320468847054604E06C2F55
:100A30001AD04FF4807006430DB3A5F14100192878
:100A400002D8203546F400664A46294620462660EC
:100A50004E46FFF7E9FB80B101280BD0F61D26F0CA
:100A6000070000F1080956E74020E4E78020D8E7B6
:100A70000020D6E706F104094DE7284652E7206A30
:100A800000F002B8DC34000030BCBDE8C09F10B5F7
:100A9000203AC0F00B80B1E81850A0E81850B1E837
:100AA0001850A0E81850203ABFF4F5AF5FEA027C76
:100AB00024BFB1E81850A0E8185044BF18C918C0A6
:100AC000BDE810405FEA827C24BF51F8043B40F847
:100AD000043B08BF7047D20728BF31F8023B48BF2C
:100AE00011F8012B28BF20F8023B48BF00F8012B6A
:100AF000704730B5B0F10A0271F100034FEA900E71
:100B00004EEA817EB0EB0E0061EB91014FEA101EC0
:100B10004EEA017E10EB0E0041EB11114FEA102E50
:100B20004EEA016E10EB0E0041EB11214FEA104E20
:100B30004EEA014E10EB0E0041EB1141401841F11D
:100B400000014FEAD00040EA41704FEAD1014FEA7C
:100B5000810444EA907410EB800544EB01046D19A4
:100B600044EB0404521BA3414FF0000348BF0A3278
:100B700000D530BD401C41F1000130BD2DE9F047EA
:100B80000D4699469246044600F1240801688806FD
:100B900004D5E06921F01001216000E00120A842A5
:100BA00001DD471B00E00027A1697A1902EB09006B
:100BB000081AA0612078C00602D42046FFF7AEFCD8
:100BC000002608E0D4E901211AF806009047206ABF
:100BD000401C761C20624E45F4DB2078C0060AD506
:100BE0002046FFF79BFC06E0D4E901213020904726
:100BF000206A401C2062381EA7F10107F4DC07E0E0
:100C0000D4E9012118F805009047206A401C2062B1
:100C1000281EA5F10105F3DC2046FFF795FC20789E
:100C2000000602D50220BDE8F0870120FBE72DE990
:100C3000FF4F0C461E464FF0FF378BB0D2E9000144
:100C4000DDF860800A908A46C1F30A5505B93D4631
:100C5000002108464FF00000BAF1000F00F44000F8
:100C600005DA00EB80004FF4400101EA50004FEA42
:100C70009059B9F1010F00DDB9460A9850EA4A00CF
:100C80000ED044F61050A5F2FF3545432F14B8F1AD
:100C9000000F1ED07542291E1EDDC9F100021CE0A6
:100CA000B8F1010F4FF0000001D0302103E0F24312
:100CB00005E02154401CB042FBDB304600220021FD
:100CC00021540B99C1F80880C1E900200FB000F051
:100CD000BCB9BD1B6D1CDEE74A4600DA694206A8B6
:100CE00000F0F8FB06AB93E8070003AB83E80700CE
:100CF00050460A9902F0CEF98DE80700A0F50050A1
:100D00001F3800900398002D0ADD42F21F014A4669
:100D10000844002303A90390684602F037FC09E069
:100D2000A0F500504A461F38002303A903906846E7
:100D300002F041FC8DE807000004000C03D04FF0E6
:100D4000FF30410800E01046B8F1000F03D0002248
:100D5000009215461EE0751E05D4FFF7CAFE30321C
:100D600062556D1EF9D5B3460122084302D0002218
:100D70007F1C04E02078302801D100227F1E002A49
:100D8000099784D01DE0112D07DAFFF7B2FE30324B
:100D900062556D1C50EA0102F5D1084302D000985B
:100DA000C8B10EE00021681E05E0235C625C63545C
:100DB0002254401E491C8142F7DBAB46A81B401E53
:100DC0000990002004F80B000B98099AC0F80880DD
:100DD000C0E9002B7AE711264FF0000857E72DE90C
:100DE000F04F88460446D21D22F0070191B0D1E9A8
:100DF0000001CDE90A0102F015FD02460B98C00F73
:100E000001D02D2007E02068810701D52B2002E0CA
:100E1000202101EAC000032A099001D0072A05DB3E
:100E200003464146204600F015FB0BE12078800682
:100E300001D5E06900E00620B8F1650F814606D0D3
:100E4000B8F1660F18D0B8F1670F70D131E000200B
:100E5000B9F1110F009001DB112301E009F1010349
:100E60000AAA01A90CA8FFF7E2FEDDE90C70002632
:100E700009F10105834647E001204B4600904FF001
:100E800000470AAA01A90CA8FFF7D1FEDDE90DB0C1
:100E90000C995D46002610B909F101000D18B9EB57
:100EA000050003D4C0F1FF3609F10105A5EB0900E7
:100EB0002BE0B9F1010F01DA4FF001090020B9F17F
:100EC000110F0090484601DD112300E003460AAAF5
:100ED00001A90CA8FFF7ABFEDDE90C704D4600261A
:100EE0008346207800070AD4AB4500DA5D4601A8A6
:100EF000012D04DD411911F8011C302907D04F459F
:100F000002DA17F1040F04DA012082460FE06D1EA9
:100F1000EEE7002F02DCED1B3E4403E0781CA84204
:100F200000DD7D1CB81B00F1010A4FF0004720785E
:100F3000000703D4AA4501DB4FF0FF3A0021B7F1C7
:100F4000004F0DF143088DF8431024D002202B23CD
:100F5000002F01DA7F422D230A21021EA0F1010099
:100F600000DC5FB197FBF1FC97FBF1F201FB1C7C0D
:100F700017460CF1300C08F801CDEEE7A8F101009E
:100F800003702188090501D5452100E06521A0F104
:100F9000010800F8011C09980FA9A1EB0807FF1D23
:100FA00000B10120411901EBEA70A1693844081A27
:100FB000401EA0612078C00602D42046FFF7AEFA9A
:100FC000099828B1D4E901219047206A401C206289
:100FD0002078C00622D52046FFF7A0FA1EE0002E9A
:100FE00004DBB34502DD01A8805D00E03020D4E9D8
:100FF00001219047206A401C2062761CAAF1010062
:101000005FEA000A0AD100F021FAC0680168405C7A
:10101000D4E901219047206A401C2062281EA5F1D6
:101020000105DCDC07E0D4E9012118F8010B904749
:10103000206A401C2062381EA7F10107F3DC20461D
:10104000FFF782FA032011B041E630BCBDE8C08F43
:101050002DE9F04F04460D46D21D22F0070089B05D
:10106000D0E900974846394602F0DCFB0246F80F0B
:1010700001D02D2307E02068810701D52B2302E052
:10108000202101EAC0038DF820300BB1012000E0DF
:101090000020032A824601D0072A04DB2946204685
:1010A00000F0D8F93FE12078800601D40D2500E05A
:1010B000E569C7F30A560D2D49DA00214FEA175B9F
:1010C00008464FF00000002F00F4400007DA00EB64
:1010D00080004FF4400100EBD07001EA6000811500
:1010E000012901DD4FF0FF3100224FEA850CBCF1F0
:1010F000180F06D31346ACF118004FF08052C240CF
:1011000003E04FF4801323FA0CF30CF10C0CBCF148
:10111000200F04D3ACF1200C09FA0CF001E007FA1F
:101120000CF000294FF0004801DD18B90FE00ED196
:1011300040450CD319EB02095F4121B9404502D16A
:101140009F4329EA0209BBEB175F00D0761C208879
:10115000000502D57B48784402E07A487844193883
:1011600008AA302302F80A30037C0AF10101002E9C
:101170000AF1020A53546A4602DC4FF0300101E0E2
:101180004FF031014FF001088DF8001002D0A6F2A7
:10119000FF3603E059EA470100D06B4E002D02DC18
:1011A0002178090704D54FF002082E218DF801108F
:1011B000C44600210BE0C7F303433F01C35C491C55
:1011C0006D1E02F80830052908F1010801DA002D2A
:1011D000F1DC00210CE000EB1973491C1B786D1E3B
:1011E000082902F808304FEA091908F1010801DA64
:1011F000002DF0DC21688B0602D516E0A8F101086D
:10120000E04505DD02EB080313F8013C302BF5D077
:10121000B8F1000F09DD02EB080313F8013C2E2B97
:1012200003D1090701D4A8F10108002D05DD3E21F5
:1012300002F808106D1E08F10108407C002E02F82B
:10124000080008F1010804DA2D20764202F80800AF
:1012500002E02B2002F808000A214FF47A7086423F
:1012600008F101080BDB96FBF0F3303302F808308D
:1012700096FBF0F308F1010800FB136601E0642E11
:101280000CDB642096FBF0F3303302F8083096FB59
:10129000F0F308F1010800FB136601E00A2E06DBFB
:1012A00096FBF1F0303002F8080008F1010896FBD7
:1012B000F1F001FB1060303002F80800A16908F17C
:1012C000010808EB050202EB0A00081AA061207869
:1012D000C00602D42046FFF721F9216A08AE01EBCF
:1012E0000A00206204E0D4E9012116F8010B9047BE
:1012F000BAF1010AF7D22078C00602D52046FFF7DE
:101300000DF96E4609E016F8010B3E280FD0D4E91E
:1013100001219047206A401C2062B8F10108F2D2F6
:101320002046FFF711F909B0032000F00FB8206A3A
:101330002844206203E0D4E90121302090476D1E4B
:10134000EBD3F8E7BA2C000002FCFFFF30BCBDE88D
:10135000C08F10B5436913B1AFF3008001E0FFF710
:1013600016F9012010BD127800F124010A70002244
:101370004A700122EDE711684FF0FF32E9E710B53E
:10138000436913B1AFF3008001E0FFF797F9012043
:1013900010BD128800F1240182840022C28401223F
:1013A000EDE711684FF0FF32E9E72DE9F04116460D
:1013B0000C46054600F042F8036893F80101012845
:1013C00007D0FF2C12D8185D80B101202C70BDE829
:1013D000F081D3F807013246214603F20713C718FC
:1013E0002846BC46BDE8F041002360474FF0FF307F
:1013F000EDE7754600F0EAF8AE460500694653464B
:1014000020F00700854618B020B5FEF7A3FFBDE821
:1014100020404FF000064FF000074FF000084FF05B
:10142000000BAC46ACE8C009ACE8C009ACE8C009A8
:10143000ACE8C00921F007018D46704710B500F0F7
:1014400005F8001D10BD00BF49240000004870478A
:10145000280000202DE9F0411F46044603260168BC
:10146000072A01F4006004DB08B116A505E016A503
:1014700003E008B115A500E015A521F010002060DB
:10148000A069C01EA0610FB1401EA0612046FFF7F9
:1014900045F84FB1D4E9012138469047206A401CF5
:1014A0002062C01C206206E0206AFAE7D4E901212C
:1014B00015F8010B9047761EF8D22046FFF744F846
:1014C000BDE8F0814E414E006E616E00494E46000F
:1014D000696E66002DE9F047814616468AB03548A8
:1014E00078440DC88DE80D0032487844801C03AC68
:1014F0000DC884E80D0041F69B300844372190FB6D
:10150000F1F290FBF1F5A5F1800501FB12041B3C03
:1015100002D56442012000E00020DFF898A0804658
:101520000027FA44AAF1BE0A0EE0E0070AD03246CC
:10153000684607EB470101230AEB810102F03BF803
:101540008DE8070064107F1C002CEED1194F7F44FA
:10155000AE3F19E0E80715D007EB04100DF1180AAB
:1015600090E80E008AE80E00C068F04201D1981998
:1015700008903246012306A903A802F01CF803AB29
:1015800083E807006D10641C002DE3D14FF00103C8
:1015900032466946B8F1000F03A802D001F0F6FF09
:1015A00001E002F008F8C9E90001C9F808200AB012
:1015B000BDE8F087C029000010B50446AFF30080F5
:1015C0002046BDE81040FEF794BE0000004870477A
:1015D000080000200000000030B44FF0013C50F83B
:1015E000042B51F8043BCCFA52F4D51A20D1FCB9A3
:1015F00050F8042B51F8043BCCFA52F4D51A17D109
:10160000B4B950F8042B51F8043BCCFA52F4D51A73
:101610000ED16CB950F8042B51F8043BCCFA52F4BB
:10162000D51A05D1002CDAD030BC4FF0000070473D
:1016300029BAB1FA81F111F01801D1F120008440EA
:10164000F2D1CA40CB4012F0FF0213F0FF0330BCCE
:10165000D01A704701491820ABBEFEE726000200F1
:101660007047000040F27020C2F20000006890B1A4
:10167000FFE740F27020C2F200000168013901600A
:10168000006838B9FFE740F27421C2F2000100207F
:101690000870FFE7FFE770470020C4F2020000680F
:1016A000800400280FD5FFE70421C4F20201086876
:1016B00040F4005008604421C4F20201086820F0A0
:1016C00001000860FFE770470020C4F202000068D4
:1016D000800100280FD5FFE70421C4F20201086849
:1016E00040F0007008608021C4F20201086820F018
:1016F00001000860FFE7704780B586B0059004914F
:1017000041F24800C4F20200016841F001010160A9
:101710000068039003980599086820F001000860AC
:1017200005988021C4F2020188421BD1FFE7042101
:10173000C4F20201086840F080700860A821C4F279
:101740000201086820F070600860086840F00070CE
:10175000086011200290022100F09CFF029800F026
:101760003DFF22E005984421C4F2020188421BD1CA
:10177000FFE70421C4F20201086840F480500860C9
:10178000A821C4F20201086820F4704008600868CB
:1017900040F4005008600E200190022100F07AFF12
:1017A000019800F01BFFFFE7FFE704982830059938
:1017B00088600599086820F48040086005990868E9
:1017C00020F4405008600599086840F40050086013
:1017D0000599086820F4406008600599086820F4BD
:1017E000407008600599086840F08000086005991D
:1017F000086820F0400008600599086820F0200083
:1018000008600599086840F01000086005990868AC
:1018100040F0020008600599086820F00C0008609C
:1018200006B080BD41F24C01C4F20201086840F0EC
:101830000200086040F20041C4F60001086820F48C
:1018400070200860086840F42020086040F20441DD
:10185000C4F60001086840F44070086040F2084196
:10186000C4F60001086840F47020086040F20C41A2
:10187000C4F60001086820F470200860086840F48D
:10188000A020086040F22441C4F60001086820F05E
:10189000FF000860086840F04400086070470000DE
:1018A00081B05220009041F25801C4F20201086850
:1018B00040F40010086041F28801C4F20201086897
:1018C00020F440500860086840F48050086041F2FD
:1018D0003801C4F20201086840F40010086008688A
:1018E00020F40010086045F20041C4F200010868CD
:1018F00020F001000860086820F480500860086843
:1019000020F470600860086840F080000860086893
:1019100020F40030086045F20442C4F2000210686E
:1019200020F400601060106840F0007010601068D3
:1019300040F40040106045F21042C4F2000210680A
:1019400040F0E0401060106840F410001060106833
:1019500040F440201060106840F41450106010688B
:1019600040F02E00106045F20842C4F200021068F8
:1019700020F40040106045F20C43C4F200031868E4
:1019800020F400401860106820F480601060A420EB
:101990001060106840F400401060086840F00100DA
:1019A000086001B07047000080B586B004908DF8E3
:1019B0000F1002928DF807309DF80700012803DB15
:1019C000FFE7029820B9FFE7FF208DF8170034E009
:1019D000049800F0EDF804989DF80F109DF807208A
:1019E000012300F09DF800200090FFE700989DF88B
:1019F0000710884212DAFFE7FFE704988069400782
:101A0000002801D4FFE7F8E70498406A0299009A99
:101A10008854FFE7009801300090E7E7FFE704985B
:101A200080694006002801D4FFE7F8E7049800F039
:101A3000ADF800208DF81700FFE79DF9170006B0FC
:101A400080BD000080B588B006908DF81710049214
:101A50008DF80F309DF80F00012803DBFFE7049895
:101A600020B9FFE7FF208DF81F0055E0069800F031
:101A70009FF806989DF817109DF80F20002300F09E
:101A80004FF8B0F1FF3F04DCFFE7FF208DF81F00A7
:101A900042E000200290FFE702989DF80F10884274
:101AA00012DAFFE7FFE7069880698007002801D473
:101AB000FFE7F8E704980299405C06998862FFE71F
:101AC000029801300290E7E7FFE70698816900205D
:101AD00049060029019009D4FFE70698806900F0C3
:101AE0001001012080EA11100190FFE70198C00762
:101AF00008B1FFE7E9E706988069C006002804D529
:101B0000FFE7FF208DF81F0006E0069800F03EF882
:101B100000208DF81F00FFE79DF91F0008B080BD71
:101B200084B0039002918DF807208DF806300020D4
:101B30000090039840680090009849F60001CFF6A5
:101B40000041084000909DF80600012805D1FFE7FC
:101B5000009840F48060009004E0009820F48060D9
:101B60000090FFE702986FF39F209DF8071040EA6E
:101B70000141009808430090009840F40050009004
:101B8000009803994860002004B0704781B000902D
:101B90000099486840F480404860FFE700988069F9
:101BA0008006002801D4FFE7F8E701B07047000085
:101BB00081B00090FFE7009880690004002801D5FB
:101BC000FFE7F8E701B0704741F24C01C4F20201AF
:101BD000086840F0010008604FF09041086820F468
:101BE00040600860086840F4806008600421C4F622
:101BF0000001086820F0200008600821C4F60001F8
:101C0000086820F440600860086840F400600860DC
:101C10000C21C4F60001086820F44060086014211B
:101C2000C4F60001086820F020000860704700003A
:101C30001421C4F60001086880F020000860704795
:101C400041F24C01C4F20201086840F00100086052
:101C50004FF09041086820F00F100860086840F0CD
:101C6000051008600821C4F60001086820F00F1074
:101C70000860086840F00A1008600421C4F60001FA
:101C800008684FF6FC42CFF6FF72104008600C2146
:101C9000C4F60001086820F00F1008601421C4F693
:101CA00000010868104008607047000041F24C01D4
:101CB000C4F20201086840F0030008604FF0904150
:101CC000086820F440700860086840F400700860FC
:101CD0002021C4F60001086820F47020086008681C
:101CE00040F4A020086040F20041C4F600010868FA
:101CF00020F47C600860086840F42860086040F2C6
:101D00002041C4F6000108686FF3173008600868C6
:101D100045F20002C0F25502104308600821C4F6E3
:101D20000001086840F4407008600421C4F6000116
:101D3000086820F0100008600C21C4F60001086853
:101D400020F44070086040F20841C4F600010868C1
:101D500040F47C60086040F20441C4F60001086869
:101D600020F03800086040F20C41C4F60001086819
:101D700020F47C600860704741F26001C4F2020107
:101D8000086840F48050086041F24001C4F202014A
:101D9000086840F480500860086820F480500860AB
:101DA00043F20001C4F20101086820F0400008601D
:101DB000086820F480600860086820F4004008602B
:101DC000086820F480400860086820F080000860FF
:101DD00043F20402C4F20102106820F47060106043
:101DE000106840F470601060106820F010001060FF
:101DF000086840F002000860086840F001000860D0
:101E0000086820F038000860086840F01800086092
:101E1000086820F400500860086840F0040008607A
:101E2000086820F400700860106840F00800106036
:101E3000106840F004001060106820F480501060BA
:101E4000086840F0400008607047000081B0ADF8BD
:101E50000200FFE743F20800C4F2010000688007B7
:101E6000002801D4FFE7F5E7BDF8020043F20C01BA
:101E7000C4F201010860FFE743F20800C4F2010068
:101E800000680006002801D5FFE7F5E7FFE743F209
:101E90000800C4F201000068C00708B9FFE7F6E7D0
:101EA00043F20C00C4F20100006880B201B0704738
:101EB00080B540F28451C2F2000108680130086028
:101EC000FFF7D0FB40F26801C2F200010868013060
:101ED0000860022809D3FFE740F26801C2F200015E
:101EE0000020086001F050F8FFE740F27C50C2F299
:101EF0000000006840B1FFE740F27C51C2F20001EF
:101F0000086801380860FFE780BD000080B582B036
:101F10004EF21001CEF20001002008604EF21403D0
:101F2000CEF2000343F67F02C0F201021A604EF2C5
:101F30001802CEF200021060086840F0020008604B
:101F4000086840F001000860086840F0040008607C
:101F50004FF0FF30019000F029FB0198012100F0C3
:101F600077FB02B080BD000083B042F20001C4F2F2
:101F70000201086820F007000860086840F00200CD
:101F8000086041F20001C4F20201086840F4807068
:101F90000860FFE741F20000C4F20200006840055B
:101FA000002801D4FFE7F5E71020029041F2040178
:101FB000C4F20201086820F0F8500860029A08682C
:101FC00040EA0260086041F20001C4F202010868C0
:101FD00020F080700860FFE741F20000C4F20200C8
:101FE00000688001002801D5FFE7F5E741F20C0108
:101FF000C4F202010191086820F00300086008683B
:1020000040F0020008600868142262F30E200860A5
:102010000868012262F306100860086820F0C060BA
:102020000860086840F08070086041F20001C4F266
:102030000201086840F080700860FFE741F200008C
:10204000C4F2020000688001002801D4FFE7F5E730
:1020500041F20801C4F20201086820F003000860A0
:10206000086840F003000860FFE741F20800C4F28E
:102070000200006800F00C000C2801D0FFE7F4E734
:1020800041F20801C4F20201086820F0F000086083
:10209000086820F4E0600860086820F46050086078
:1020A00041F20001C4F20201086820F0806008607B
:1020B000FFE741F20000C4F202000068400100287E
:1020C00001D5FFE7F5E741F21001C4F202010091EA
:1020D000086820F4FE400860086840F4C0500860BA
:1020E000086840F400300860086840F480300860F8
:1020F00041F20001C4F20201086840F0806008600B
:10210000FFE741F20000C4F202000068400100282D
:1021100001D4FFE7F5E741F28801C4F20201086843
:1021200020F44000086041F26001C4F20201086836
:1021300040F40010086003B07047000041F24C0109
:10214000C4F20201086840F00200086040F2004159
:10215000C4F60001086820F470400860086840F484
:102160002040086040F20841C4F60001086840F4CD
:102170007040086040F20441C4F60001086820F095
:10218000C000086040F20C41C4F60001086820F469
:1021900070400860086840F4A040086040F22041A8
:1021A000C4F60001086820F07F400860086840F02D
:1021B000EE4008607047000080B541F26001C4F253
:1021C0000201086840F48040086041F28801C4F2CE
:1021D0000201086820F003000860086840F0010070
:1021E000086040F28C51C2F200014420C4F20200A7
:1021F000086043F60001C4F20101FFF77DFA80BDDB
:1022000081B00090FFE700980078A8B1FFE7FFE7F2
:1022100043F61C00C4F2010000680006002801D447
:10222000FFE7F5E70098411C0091007843F628018C
:10223000C4F201010880E6E701B0704741F24C01A9
:10224000C4F20201086840F0010008604FF09041BC
:10225000086820F0F0000860086840F0A0000860FE
:102260000821C4F60001086840F0F000086004216D
:10227000C4F60001086820F00C0008600C21C4F6C8
:102280000001086820F0F0000860086840F0500085
:1022900008602021C4F60001086820F47F4008602F
:1022A000086840F4EE4008607047000080B541F2D5
:1022B0005801C4F20201086840F40030086041F29D
:1022C0008801C4F20201086820F00C000860086868
:1022D00040F00400086040F28851C2F20001802002
:1022E000C4F20200086044F20041C4F20001FFF7AA
:1022F00003FA80BD80B584B003900291029808B9BA
:10230000FFE762E0039843F6FC71C0F60001022289
:10231000FEF771F850B1FFE7039843F6AC71C0F6D1
:1023200000010322FEF767F838B9FFE740F26D219C
:10233000C2F200010120087047E0039843F6F971EA
:10234000C0F600010222FEF756F850B1FFE70398ED
:1023500043F69E71C0F600010322FEF74CF838B92F
:10236000FFE740F26C21C2F20001012008702BE06F
:10237000039843F6FF71C0F600010222FEF73BF816
:1023800050B1FFE7039843F6F571C0F60001032250
:10239000FEF731F838B9FFE740F26E21C2F20001D2
:1023A000012008700FE0039A40F26C00C2F20000B6
:1023B000019043F6EB71C0F60001FDF7E7FF0198CD
:1023C00000F006F8FFE7FFE7FFE704B080BD00007C
:1023D00080B584B003900398FFF712FF0398FDF7D0
:1023E000EBFF0290029808B9FFE751E040F28850F5
:1023F000C2F2000000680068C007C8BBFFE740F2F7
:102400000000C2F20000019000680399029AFEF7F2
:102410003DF8019940F28850C2F2000003681A6842
:1024200022F001021A6003681A6822F002021A60A0
:1024300009680268D1600299026851600422C4F2FE
:102440000202116841F08071116044F22042C4F22E
:102450000002116841F0400111600268116841F00A
:10246000020111600168086840F0010008600FE097
:1024700040F20400C2F2000000680399029AFEF7DD
:1024800005F8029840F27851C2F200010870FFE7A7
:1024900004B080BD80B543F61C00C4F201000068A2
:1024A0008006002809D5FFE743F62400C4F20100A6
:1024B0000088C0B200F0B8FDFFE743F61C00C4F28C
:1024C00001000068400600280BD5FFE743F6200115
:1024D000C4F20101086840F04000086000F06EFCA2
:1024E000FFE780BD80B544F21C40C4F200000068E4
:1024F0008006002809D5FFE744F22440C4F200001A
:102500000088C0B200F090FDFFE744F21C40C4F226
:10251000000000684006002809D5FFE744F220418A
:10252000C4F20001086840F040000860FFE780BD89
:1025300081B000900099086820F0010008600099BF
:10254000086820F0102008600099086820F4004016
:1025500008600099486820F440504860009942F2B1
:102560008D00C8600099086840F00C000860009970
:10257000086840F00100086001B0704781B08DF834
:1025800003009DF9030000280ED4FFE79DF9031016
:1025900001F01F02012090404A094EF20011CEF2D4
:1025A000000141F82200FFE701B0704781B08DF8CB
:1025B00003009DF9030000280ED4FFE79DF90310E6
:1025C00001F01F02012090404A094EF20011CEF2A4
:1025D000000141F82200FFE701B0704781B08DF89B
:1025E00003009DF9030000280ED4FFE79DF90310B6
:1025F00001F01F02012090404A094EF20011CEF274
:10260000000141F82200FFE701B0704782B08DF869
:10261000070000919DF9070000280AD4FFE7009801
:1026200000019DF907104EF20042CEF200028854DC
:102630000BE0009800019DF8071001F00F014EF625
:102640001452CEF200028854FFE702B07047000037
:1026500082B08DF8070000919DF9070000280AD488
:10266000FFE7009800019DF907104EF20042CEF2FC
:10267000000288540BE0009800019DF8071001F05B
:102680000F014EF61452CEF200028854FFE702B05A
:102690007047000082B08DF8070000919DF9070097
:1026A00000280AD4FFE7009800019DF907104EF2B8
:1026B0000042CEF2000288540BE0009800019DF821
:1026C000071001F00F014EF61452CEF200028854AA
:1026D000FFE702B07047000080B582B08DF80700B8
:1026E0009DF80700022161F39F108DF806009DF808
:1026F00006000002ADF80400BDF80400FFF7A6FBD9
:10270000ADF802009DF8020002B080BD80B582B035
:102710008DF807008DF806109DF8070000F03F00C7
:102720008DF805009DF805109DF8060040EA01208F
:10273000ADF80200BDF80200FFF788FB02B080BDD3
:1027400040F28450C2F200000068704780B582B049
:10275000312008210191FFF7D9FF01992D20FFF7C2
:10276000D5FF02B080BD000080B584B08DED020BB6
:1027700002980399012200929FED0F0B53EC102B4E
:1027800001F0ABFA01460098019069B9FFE70298A1
:1027900003999FED0B0B53EC102B01F0B3FA0028BB
:1027A00018BF01200190FFE7019800F0010004B07C
:1027B00080BD00BF00BF00BF000000000000F03F70
:1027C000000000000000F0BF80B584B08DED020B6A
:1027D00002980399012200929FED0F0B53EC102BEE
:1027E00001F07BFA01460098019069B9FFE7029871
:1027F00003999FED0B0B53EC102B01F083FA00288B
:1028000018BF01200190FFE7019800F0010004B01B
:1028100080BD00BF00BF00BF000000000000F03F0F
:10282000000000000000F0BF80B598B000201790B5
:10283000FFF79AFBFFF704FAFFF768FBFFF7FEFCD0
:10284000FFF734FD44F20040C4F200000A90FFF7A5
:102850006FFE0A9944F20842C4F20002106840F088
:1028600080001060086840F040000860086840F090
:1028700020000860FFE744F21C40C4F2000000683A
:102880008002002801D4FFE7F5E7FFE744F21C408F
:10289000C4F2000000684002002801D4FFE7F5E719
:1028A000262008900321FFF7B1FE11200221FFF737
:1028B000ADFE0898FFF762FEFFF740FCFFF77CFCD7
:1028C00043F60000C4F201000990FFF731FE0999B8
:1028D00043F60802C4F20102106840F08000106064
:1028E000086840F040000860086840F02000086078
:1028F000FFE743F61C00C4F20100006880020028D4
:1029000001D4FFE7F5E7FFE743F61C00C4F201003E
:1029100000684002002801D4FFE7F5E72520069073
:102920000321FFF773FE0E200221FFF76FFE0698CA
:10293000FFF724FEFFF748F9FFF7B8F9FFF71CFA95
:10294000FFF704FFFEF76EFFFEF7AAFF40F26C10E0
:10295000C2F20000079043F6B071C0F60001FDF727
:1029600015FD0798FFF734FD00F036F94CF2000032
:10297000CCF279401690FFF7E3FE159000208DF819
:102980005300FFE740F26D20C2F20000007820B350
:10299000FFE740F26D21C2F200010020087040F212
:1029A0007421C2F200010120087040F27021C2F2CD
:1029B00000014FF47A60086040F26C10C2F200002F
:1029C000059043F6DC61C0F60001FDF7DFFC0598D9
:1029D000FFF7FEFC00F07AF957E040F26C20C2F2FB
:1029E0000000007820B3FFE740F26C21C2F2000142
:1029F0000020087040F27421C2F20001012008702A
:102A000040F27021C2F200014FF47A60086040F297
:102A10006C10C2F20000049043F6EB61C0F60001B6
:102A2000FDF7B4FC0498FFF7D3FC00F0D5F82BE0D9
:102A300040F26E20C2F20000007820B3FFE740F2BF
:102A40006E21C2F200010020087040F27422C2F22E
:102A500000020121117040F27022C2F200024FF414
:102A60007A61116000F0C6FA40F26C10C2F2000008
:102A7000039043F6A271C0F60001FDF787FC0398AE
:102A8000FFF7A6FCFFE7FFE7FFE7FFF759FE13900C
:102A900013981599401AC828C0F09280FFE7139840
:102AA000159010A80EA90CAA00F0FEF900F0D8F9B4
:102AB0008DED0B0A9DED0B0A30EE000ABDEEC00A4B
:102AC00010EE100A9DED160A30EE000ABDEEC00AA7
:102AD00010EE101A884218D0FFE70B9801F0C4F8E6
:102AE00041EC100B53EC102B40F26C10C2F20000C2
:102AF000029043F68F71C0F60001FDF747FC029883
:102B0000FFF766FC0B981690FFE740F27420C2F2C4
:102B100000000078002850D1FFE79DF8530018BB53
:102B2000FFE70B9801F0A0F841EC100B9FED261B7E
:102B300053EC112B51EC100B01F0DDF8A0B9FFE7BD
:102B400001208DF8530040F26C10C2F20000019099
:102B500043F61971C0F60001FDF718FC0198FFF764
:102B600037FC00F0B3F827E09DF8530018B3FFE7F7
:102B70000B9801F079F841EC100B9FED151B53EC0D
:102B8000112B51EC100B01F0AFF8A0B9FFE70020BA
:102B90008DF8530040F26C10C2F20000009043F632
:102BA0003F71C0F60001FDF7F1FB0098FFF710FC44
:102BB00000F012F8FFE7FFE7FFE7FFF739F8FFE75C
:102BC000E0E600BF00BF00BF0000000000003A4088
:102BD000000000000000364080B58EB040F26C105E
:102BE000C2F20000039043F65471C0F60001FDF7F5
:102BF000CDFB0398FFF7ECFBFFF7A2FD0D90FFF76D
:102C00009FFD0C9000208DF82F004FF0FF3000F05A
:102C1000F1F9FFE7FFF794FD0A900A980C99401A22
:102C2000142836D3FFE70A980C9008A806A904AA2E
:102C300000F03AF99DED060BFFF796FD20B3FFE794
:102C40009DF82F0001308DF82F009DF82F000128EE
:102C500019DBFFE70020019000F0CCF9019840F269
:102C60007641C2F20001087040F26C10C2F200001E
:102C7000029043F60A71C0F60001FDF787FB029847
:102C8000FFF7A6FB20E003E000208DF82F00FFE710
:102C9000FFE7FFF755FD0D99401AB0F57A6F12D98D
:102CA000FFE7002000F0A6F940F26C10C2F200002D
:102CB000009043F66471C0F60001FDF767FB0098D1
:102CC000FFF786FB00E0A5E70EB080BD80B58EB0B3
:102CD00040F26C10C2F20000039043F62F71C0F670
:102CE0000001FDF753FB0398FFF772FBFFF728FD88
:102CF0000D90FFF725FD0C9000208DF82F0001208E
:102D000000F078F9FFE7FFF71BFD0A900A980C998D
:102D1000401A142835D3FFE70A980C9008A806A992
:102D200004AA00F0C1F89DED040BFFF74DFD18B3A8
:102D3000FFE79DF82F0001308DF82F009DF82F0040
:102D4000012818DBFFE7002000F054F940F276413B
:102D5000C2F200010120087040F26C10C2F20000C3
:102D6000029043F6FB61C0F60001FDF70FFB0298ED
:102D7000FFF72EFB20E003E000208DF82F00FFE797
:102D8000FFE7FFF7DDFC0D99401AB0F57A6F12D915
:102D9000FFE7002000F02EF940F26C10C2F20000B4
:102DA000019043F67A71C0F60001FDF7EFFA019841
:102DB000FFF70EFB00E0A6E70EB080BD82B040F248
:102DC0007850C2F200000078012846DBFFE740F2AD
:102DD0000001C2F200010868019040F20402C2F250
:102DE0000002106808600198106040F27852C2F248
:102DF000000210788DF803000020107040F2885017
:102E0000C2F2000003681A6822F001021A60036827
:102E10001A6822F002021A6009680268D1609DF8FF
:102E20000310026851600422C4F20202116841F0EA
:102E30008071116044F22042C4F20002116841F036
:102E4000400111600268116841F0020111600168DF
:102E5000086840F001000860FFE702B0704700001A
:102E600080B584B000208DF80F008DF80E0045F27B
:102E70000040C4F200000290902100910DF10F0279
:102E800001230193FEF7DEFD0099019B02980DF1ED
:102E90000E02FEF789FD9DF90E0000EE100AB8EE55
:102EA000C00A04B080BD000080B58EB00D900C91BA
:102EB0000B924FF2E420C3F66F70099047F2DE10D8
:102EC000C8F68A6008903320FFF706FC0190322094
:102ED000FFF702FC019940EA0120ADF81E00352001
:102EE000FFF7FAFB02903420FFF7F6FB029940EA65
:102EF0000120ADF81C003720FFF7EEFB03903620D1
:102F0000FFF7EAFB039940EA0120ADF81A00BDF98A
:102F10001E0000F01BFD41EC100B51EC100B9FED5F
:102F2000180B53EC102B0593049200F09FFD41EC1D
:102F3000100B0D9880ED000BBDF91C0000F006FD94
:102F4000049A059B41EC100B51EC100B00F08EFD28
:102F500041EC100B0C9880ED000BBDF91A0000F04D
:102F6000F5FC049A059B41EC100B51EC100B00F0A2
:102F70007DFD41EC100B0B9880ED000B0EB080BD79
:102F8000DE718A8EE4F26F3F40F27540C2F20000BB
:102F900090F9000048B9FFE71421C4F60001086861
:102FA00040F203329043086022E040F28052C2F2C5
:102FB0000002107840F27541C2F2000191F9001050
:102FC000012918BF0721084400F0070010701421E0
:102FD000C4F60001086840F203339843137843F6BF
:102FE000BC62C0F6000252F8232010430860FFE7DD
:102FF0007047000081B08DF803009DF8030040F297
:103000007541C2F2000108709DF9030048B9FFE75D
:103010001421C4F60001086840F2033290430860AE
:10302000FFE701B07047000080B584B08DF80F0055
:1030300040F27740C2F200000078FE280FDCFFE784
:103040009DF80F0040F27743C2F200031A78511C3A
:10305000197040F27841C2F200018854FFE79DF8F0
:103060000F000A2814D1FFE740F27741C2F20001B5
:1030700001910B7840F27840C2F2000000220292E7
:10308000C2540978FFF736F9019902980870FFE7F2
:1030900004B080BD5FEA400C08BF91F0000F4FEA1A
:1030A0008C234FEAC12243EA51514FEA1C5018BF0A
:1030B00000F5F0404FEA300018BF41F000415FEAF0
:1030C0006C5C00F02980BCF1FF3F08BF40F08040FD
:1030D0007047130C06BF12044FF0100C4FF0000C99
:1030E000130E04BF12020CF1080C130F04BF1201DF
:1030F0000CF1040C930F04BF92000CF1020CD30FDF
:1031000004BF52000CF1010C11464FF00002A0F177
:103110001F00A0EB0C00704711F0004F08BF704774
:1031200031F000413FF4D5AF0B0C06BF09044FF05E
:10313000100C4FF0000C0B0E04BF09020CF1080C30
:103140000B0F04BF09010CF1040C8B0F04BF8900A5
:103150000CF1020CCB0F04BF49000CF1010CCCF1B7
:10316000200322FA03F341EA030102FA0CF2A0EB76
:103170000C0000F10100704723F07F4720F07F4CE6
:1031800080EA030000F00040ACEB070303F57C533A
:1031900003F1FF032DE9804909B44FEA144324EAFF
:1031A00003484FEA154B25EA0B4E0FF2042606EBB7
:1031B00013273E7803FB0667C7F5000707FB06F6F3
:1031C0004FEAD64606F102064FEA543707FB066C73
:1031D000CCF1005C4FEA1C472CEA074C0CFB06F5CF
:1031E00007FB06F404EB15464FEA961649085FEA1A
:1031F000320234BF00204FF000404FEAD13706FBC7
:1032000007FC4FEA1C4C0CFB0BF7D21B03FB0CF723
:1032100061EB07010CFB0EF7B0EB074072EB1742B6
:103220000CFB08F734BFA2EB0742B2EB074261EB9D
:1032300017414FEA0C444FEA910706FB07FC4FEA9F
:103240001C4C0CFB0BF7B0EBC74072EB573203FB87
:103250000CF734BFA2EBC742B2EBC74261EB573168
:103260000CFB0EF7B0EBC70072EB57720CFB08F7C4
:1032700034BFA2EBC702B2EBC70261EB57714FEA52
:10328000816141EA92114FEA826242EA90124FEA6A
:10329000806004EBCC04039F4FEAD13706FB07FCA8
:1032A0004FEA1C4C0CFB0BF7D21B03FB0CF761EB3A
:1032B00007010CFB0EF7B0EB074072EB17420CFB5B
:1032C00008F734BFA2EB0742B2EB074261EB1741AC
:1032D0004FEA8C5504EB9C244FEA910706FB07FC50
:1032E0004FEA1C4C0CFB0BF7B0EBC74072EB5732AC
:1032F00003FB0CF734BFA2EBC742B2EBC74261EB52
:1033000057310CFB0EF7B0EBC70072EB57720CFB9A
:1033100008F734BFA2EBC702B2EBC70261EB5771EB
:103320004FEA816141EA92114FEA826242EA9012C9
:103330004FEA806015EB4C2544F100044FEAD13789
:1033400006FB07FC4FEA1C4C0CFB0BF7D21B03FBE4
:103350000CF761EB07010CFB0EF7B0EB074072EBCB
:1033600017420CFB08F734BFA2EB0742B2EB07424F
:1033700061EB17414FEA813141EA92414FEA8232D3
:1033800042EA90424FEA80304FEA0C7615EB1C156A
:1033900044F1000448EA03434EEA0B484FF0000EA4
:1033A000B2EB080C71EB030724BF624639464EEBC3
:1033B0000E0E4FF0000B0018524149414BEB0B0B26
:1033C000B2EB080C71EB03077BF1000B24BF6246E4
:1033D00039464EEB0E0E4FF0000B0018524149419A
:1033E0004BEB0B0BB2EB080C71EB03077BF1000B03
:1033F00024BF624639464EEB0E0E51EA020718BF53
:1034000046F0010616EB0E7655F1000254F100016C
:1034100003D5BDE88901BDE80088BDE88901BDE8A4
:103420000048B619524141EB0101A3F10103704775
:1034300080807F7E7D7C7B7A7978777676757473F1
:10344000727171706F6E6E6D6C6C6B6A6A696868B0
:10345000676666656464636362616160605F5F5E46
:103460005E5D5D5C5C5B5B5A5A59595858575756BC
:103470005655555554545353525252515150505021
:103480004F4F4F4E4E4D4D4D4C4C4C4B4B4B4A4A73
:103490004A494949484848474747474646464545B7
:1034A00045444444444343434342424242414141F0
:1034B0009C46002B30D477002BD04FEA37071CB541
:1034C00003B44FF010004FF01001BAF1000F06D016
:1034D000BCF1000FDCBF40F0080040F008014FF0E5
:1034E00000000FBCBDE810400BF1010BBBF1010F58
:1034F00008BF5FEA170722BF12F1010211F10101B3
:103500004FF0004143F1000300F0004043EA0000A7
:103510007047F9D35708D0E746EA06464FEA164601
:1035200013F1400F1FDD13F1200FDFBF16430A46D2
:10353000002120335B42BED0C3F1200746EA064695
:103540004FEA164602FA07F746EA070622FA03F29E
:10355000C3F1200701FA07F742EA070221FA03F153
:103560004FF00003A7E746EA020646EA06464FEA9E
:10357000164646EA0106BCBF46EA0646360C4FF040
:1035800000034FF000024FF0000194E72DE9804C5A
:1035900070B49A46934691E8380007C831EA400C67
:1035A00048BF34EA430C03D5FFF7E6FDFFF780FF81
:1035B000F0BCBDE8008C2DE9804C70B49A4693466F
:1035C00091E8380007C810F0804F08BF13F0804F13
:1035D00003D100F005F8FFF76BFFF0BCBDE8008CED
:1035E00020F07F4723F07F4C80EA030000F000408A
:1035F00007EB0C03A3F57C53A3F1FE0392F0000F3D
:1036000000F0B38095F0000F00F077802DE90149BC
:103610004FEA114021EA00484FEA144624EA0647DF
:1036200000FB06FC08FB06F607FB08F818EB06484B
:103630004CEB164C00FB07F718EB07484CEB174018
:103640004FEA124B22EA0B4E4FEA154625EA06478F
:103650000BFB06FC0EFB06F607FB0EFE1EEB064EF2
:103660004CEB164C0BFB07F71EEB074E4CEB174BC6
:1036700018EB0B0840F1000018EB0E0B58EB00089C
:1036800040F100008F1A4FF000014FF000063CBFE0
:10369000C943661B14BFB5EB040C00213CBFC943F2
:1036A000F61B4FEA174427EA04454FEA1C472CEA69
:1036B000074C04FB076205FB07F70CFB05F616EB4E
:1036C000074642EB174204FB0CFC16EB0C4642EBA0
:1036D0001C421BEB060658EB020241414EEA8E0EDD
:1036E00046EA9E0601D5BDE80189B619524141EB73
:1036F0000101A3F10103BDE801894FEA144524EA61
:1037000005464FEA114721EA074C05FB07F406FB83
:1037100007F70CFB06F111EB074144EB174405FBDF
:103720000CFC11EB0C4144EB1C444FEA124722EA1B
:10373000074C05FB07F206FB07F70CFB06F616EB3A
:10374000074642EB174205FB0CFC16EB0C4642EB1E
:103750001C456A1854F1000148BF7047B619524120
:1037600041EB0101A3F10103704795F0000F37D041
:103770004FEA114221EA02464FEA144724EA074C75
:1037800002FB07F106FB07F70CFB06F414EB0744FA
:1037900041EB174102FB0CFC14EB0C4441EB1C41C8
:1037A0004FEA154725EA074C02FB07F506FB07F72A
:1037B0000CFB06F616EB074645EB174502FB0CFC27
:1037C00016EB0C4645EB1C42121951F1000148BFA3
:1037D0007047B619524141EB0101A3F10103704753
:1037E0004FEA144524EA05464FEA114721EA074CFF
:1037F00005FB07F106FB07F70CFB06F212EB07428D
:1038000041EB174105FB0CFC12EB0C4251EB1C4148
:103810004FF0000648BF7047921841EB0101A3F139
:103820000103704703B401984100009850EAC12099
:1038300018BF04204A0D18BF40F0010040F2FF728B
:10384000B2EB515F08BF40F00200012808BF05201D
:1038500002B0704730380A2801D20120704700209A
:103860007047000010B500290AD00878002807D05A
:1038700005487844FDF7B0FE002801D0002010BDB7
:103880000248784410BD0000B2070000AA070000FB
:1038900010B500290AD00878002807D005487844D8
:1038A000FDF79AFE002801D0002010BD02487844A0
:1038B00010BD0000A20700009A070000491058BF81
:1038C000C1F140415B1058BFC3F140438B42EFF35D
:1038D0000080704751EA030C17D41CF5801F58BFB5
:1038E000BCF5801F00F10680994218BF704708BFE1
:1038F0009042704707D711F5801F58BF13F5801FFE
:1039000019D499427047894270471CF5801F08D529
:10391000BCF5801FF7D58B4218BF704708BF8242A5
:1039200070474FF4001C1CEB410F38BF1CEB430FDA
:1039300001D28B42704770B500F042F992244900E1
:103940004FF000514FF08053FFF7B8BF10F0004226
:1039500048BF4042B0FA80F310FA03F10AD0C3F135
:103960001D0303F5806302EB03524FEA415002EB63
:10397000D12170474FF000007047000051EA030C5E
:1039800017D41CF5801F58BFBCF5801F00F10680BE
:10399000994218BF704708BF9042704707D711F58A
:1039A000801F58BF13F5801F19D499427047894270
:1039B00070471CF5801F08D5BCF5801FF7D58B42DA
:1039C00018BF704708BF824270474FF4001C1CEBC1
:1039D000410F38BF1CEB430F01D28B42704770B5CB
:1039E00000F0EEF8922449004FF080514FF0005360
:1039F000FFF764BF51EA030C17D41CF5801F58BFB2
:103A0000BCF5801F00F10680994218BF704708BFBF
:103A10009042704707D711F5801F58BF13F5801FDC
:103A200019D499427047894270471CF5801F08D508
:103A3000BCF5801FF7D58B4218BF704708BF824284
:103A400070474FF4001C1CEB410F38BF1CEB430FB9
:103A500001D28B42704770B500F0B2F89224490051
:103A60004FF000514FF08053FFF728BF70B5DFF8DB
:103A700048C11CEA111E1EBF1CEA13159EEA0C0F5A
:103A800095EA0C0F00F06F8081EA03044EEAD47EC1
:103A9000AE4421EA4C1123EA4C1341F4801143F463
:103AA0008013AEF17F7EA1FB024CA0FB03653619AB
:103AB00055EB0C05A1FB034C4CF10003A0FB021CD1
:103AC00016EB0C06654153F10003094218BF46F09E
:103AD000010613F4007F0BD14FEA03314FEA0530A2
:103AE00041EA155140EA165034036FF003020AE030
:103AF0004FEAC3214FEAC52041EA555140EA5650EA
:103B0000F4026FF0020202EB2E4201EB025585EA4D
:103B1000CE710AD05FEA440C18BF24F0004450F183
:103B2000000041F1000120EAD47040F2FE7C6245C1
:103B300000D270BDA84214BF4FF080444FF0404403
:103B4000002E08BF0024BEF1806FA8BFA1F1C041C4
:103B5000BDE8704080F2828001F1C04101F0004177
:103B60004FF0000070470CEA13159EEA0C0F18BFC7
:103B700095EA0C0F06D081EA030E4FF000000EF01C
:103B8000004170BD00F01CF88900013E00F007B84C
:103B900000F009B84FEA430C5FEA5C5C08D081EAA8
:103BA000030100F05BB84FEA410C5FEA5C5CF6D1C0
:103BB00002494FF0000070470000FF070000F87F47
:103BC0000EF1020E2EF0030E5EF8046B364205D4A1
:103BD000012A43EB030515F5001F12D8012841EB1C
:103BE000010C1CF5001F0CD80ED14FEAD17C0CEB58
:103BF0004C0C0CF1020C15F5001F08BF4CEBD37CEC
:103C000004E04FF0080C01E04FEAD37C0CEB4C05CC
:103C100026FA05F606F00706B6F1040C06D20EEBFE
:103C2000860CBDE870404CF0010C6047DFE80CF0FA
:103C3000090B02024FF00041A1F500214FF00000F6
:103C400070BD19461046012851EB010418BFD4F588
:103C5000001484BF002001F0004170BD0808A0F5E9
:103C600000114FEA3101704743004FEAD30C4FEA8D
:103C70003C0C43401FBF40070CF1605113F0FE4F56
:103C800070471CF0006F03D10CF00041002070471A
:103C90000CF0004343EA507040EACC0010B500F04D
:103CA00038F800BF000000924FEA0001FFF7D6BFCE
:103CB0004FF00041A1F500214FF00000704710B512
:103CC000FFF708FE0CBF0120002010BD10B5FFF764
:103CD00001FE14BF0120002010BD10B5FFF74EFEFD
:103CE0008CBF0120002010BD10B5FFF747FE2CBF90
:103CF0000120002010BD10B5FFF77CFE94BF01200D
:103D0000002010BD10B5FFF775FE34BF0120002064
:103D100010BD0EF1020E2EF0030E5EF8044B24428D
:103D200004D44FEA4102B2F17F4F11D84FEA400369
:103D3000B3F17F4F0CD80ED14FEAD07C0CEB4C0C7A
:103D40000CF1020CB2F17F4F08BF4CEBD17C04E0C8
:103D50004FF0080C01E04FEAD17C0CEB4C0324FA45
:103D600003F404F00704B4F1040C06D20EEB840C47
:103D7000BDE810404CF0010C6047DFE80CF007088C
:103D800002024FF00040A0F5800010BD084642003E
:103D900018BFD2F1807288BF00F0004010BDF1EE74
:103DA000100A4FF6FF71C0F2C03120EA010040F066
:103DB0004070E1EE100A7047FDF711B8FDF748B901
:103DC0000000000000000000303132333435363757
:103DD000383941424344454640305800303132334F
:103DE000343536373839616263646566403078004F
:103DF00004000008000000000000000200010000B4
:103E000010303132333435363738396162636465A6
:103E100066787000303132333435363738394142C4
:103E2000434445465850000002400000000000A0F6
:103E30000000000005400000000000C80000000075
:103E40000C4000000000409C0000000019400000F1
:103E50000020BCBE0000000034400000BFC91B8E23
:103E600000000004B5400000504BCFD06607E2CF01
:103E7000010000006C4100003E8251AADFEEA73431
:103E800001000000D9420000DCB5A0E23A301F97E3
:103E9000FFFFFFFFB4450000FD25A0C8E9A3C14F07
:103EA000FFFFFFFFFF3F0000000000800000000058
:103EB000FF3F000000000080000000000100000043
:103EC00003000000020000000201000000010000E9
:103ED0000003000000020000010200004F70656E48
:103EE000696E6720284357290D0A00436C6F736978
:103EF0006E672028434357290D0A00446F6F7220D4
:103F00006F70656E65642E0D0A00446F6F722063DA
:103F10006C6F7365642E0D0A0054656D7065726177
:103F20007475726520746F6F20686967682E20440D
:103F30006F6F72206F70656E696E672E0D0A005488
:103F4000656D706572617475726520746F6F206C39
:103F50006F772E20446F6F7220636C6F73696E678A
:103F60002E0D0A00446F6F7220636C6F73652074AE
:103F7000696D656F75742E0D0A00446F6F72206F46
:103F800070656E2074696D656F75742E0D0A00542E
:103F9000656D703A20252E316620430D0A00630DB1
:103FA0000A0053746F707065640D0A006F0D0A008B
:103FB00050726F6772616D205374617274732E0D4D
:103FC0000A436F6D6D616E64733A20276F273D6FF2
:103FD00070656E2C202763273D636C6F73652C2002
:103FE0002773273D73746F700D0A00556E6B6E6FEB
:103FF000776E3A2025730D0A00630A006F0A00737A
:104000000A000000504100080000002008000000E5
:10401000EC0100085841000808000020880B00004F
:104020000C0200081C00000043000000F8FFFFFF26
:104030000C0000000E0000000F0000002E00000029
:104040001001000043000000F8FFFFFF0040404067
:10405000404040404040414141414140404040405B
:104060004040404040404040404040404005020207
:1040700002020202020202020202020202202020C6
:104080002020202020202002020202020202909022
:104090009090909010101010101010101010101020
:1040A0001010101010101010020202020202888874
:1040B0008888888808080808080808080808080880
:1040C0000808080808080808020202024000000068
:1040D00000000000000000000000000000000000E0
:1040E00000000000000000000000000000000000D0
:1040F00000000000000000000000000000000000C0
:1041000000000000000000000000000000000000AF
:10411000000000000000000000000000000000009F
:10412000000000000000000000000000000000008F
:10413000000000000000000000000000000000007F
:10414000000000000000000000000000000000006F
:08415000750200207503002038
:040000050800018965
:00000001FF
