:020000040800F2
:1000000078060020550200089302000895020008B7
:1000100097020008990200089B02000800000000F7
:100020000000000000000000000000009D02000829
:100030009F02000800000000A1020008A3020008BF
:10004000A5020008A5020008A5020008A5020008F4
:10005000A5020008A5020008A5020008A5020008E4
:10006000A5020008A5020008A5020008A5020008D4
:10007000A5020008A5020008A5020008A5020008C4
:10008000A5020008A5020008A5020008A5020008B4
:10009000A5020008A5020008A5020008A5020008A4
:1000A000A5020008A5020008A5020008A502000894
:1000B000A5020008A5020008A5020008A502000884
:1000C000A5020008A5020008A5020008A502000874
:1000D000A5020008A5020008A5020008A502000864
:1000E000D1050008A5020008A5020008A502000825
:1000F000A5020008A5020008A5020008A502000844
:10010000A5020008A5020008A5020008A502000833
:10011000A5020008A5020008A5020008A502000823
:10012000A5020008A5020008A5020008A502000813
:10013000A5020008A5020008A5020008A502000803
:10014000A5020008A5020008A5020008A5020008F3
:10015000A5020008A5020008A5020008A5020008E3
:10016000A5020008A5020008A5020008A5020008D3
:10017000A5020008A5020008A50200080000000072
:10018000A5020008A502000800F002F800F052F8ED
:1001900014A696E8000CB244B344DA4501D100F04D
:1001A00049F8BAE80F000FA696E83000A5EB040561
:1001B00004EB0607AAEB0704A7F101074FEA1515A0
:1001C0004FEA3414A4F10104AC4201D300F032F838
:1001D00013F0010F18BFFB1A43F0010300F001F800
:1001E000DBE71847B0070000D0070000103A24BF33
:1001F00078C878C1FAD8520724BF30C830C144BF8C
:1002000004680C6070470000704700000023002461
:1002100000250026103A28BF78C1FBD8520728BF16
:1002200030C148BF0B6070471FB500F0A5FB1FBD74
:1002300010B510BD00F057F81146FFF7F5FF00F0BC
:1002400057FB00F075F803B4FFF7F2FF03BC00F0B2
:100250007DF8000017481849184B99423CBF50F8E8
:10026000042B41F8042BF8D3154B16494FF000022C
:100270008B4238BF43F8042BFAD3DFF84C000168F7
:1002800041F470010160BFF34F8FBFF36F8F0F48D0
:100290000047FEE7FEE7FEE7FEE7FEE7FEE7FEE7D4
:1002A000FEE7FEE7FEE7000009480A490A4A0B4B51
:1002B00070470000B8090008000000200800002076
:1002C000080000207806002088ED00E08901000881
:1002D00078000020780600207802002078020020B4
:1002E000704770477047754600F02CF8AE46050021
:1002F0006946534620F00700854618B020B5FFF741
:10030000D3FFBDE820404FF000064FF000074FF04C
:1003100000084FF0000BAC46ACE8C009ACE8C009DF
:10032000ACE8C009ACE8C00921F007018D46704770
:1003300010B50446AFF300802046BDE81040FFF73B
:1003400082BF0000004870470800002001491820C3
:10035000ABBEFEE7260002007047000041F26001DC
:10036000C4F20201086840F0010008600421C4F2F0
:100370000101086840F48070086040F20831C5F25D
:100380000401086840F480000860086840F47010B8
:100390000860086820F440300860086840F4803045
:1003A0000860086820F01F000860704780B582B0C0
:1003B00041F24C01C4F20201086840F400500860A8
:1003C00041F22C01C4F20201086840F400500860B8
:1003D000086820F40050086000F064F8FFF7BEFFE2
:1003E00000F07EF80820C5F204000068C00788B15C
:1003F000FFE70821C5F20401086840F00200086028
:10040000FFE70820C5F204000068C00708B1FFE755
:10041000F7E7FFE70C21C5F204010191086820F01D
:1004200018000860086820F0200008603022C5F23B
:100430000402106820F00F001060106820F4F860CB
:100440001060106840F4C0701060B022C5F2040261
:10045000106820F0400010601422C5F204021068F9
:1004600020F4E0101060106840F40020106008686C
:1004700020F400500860086820F4406008600821FB
:10048000C5F20401086840F001000860FFE70020A1
:10049000C5F204000068C00708B9FFE7F7E702B03B
:1004A00080BD000041F24C01C4F20201086840F036
:1004B000010008604FF09041086840F00C000860AF
:1004C0000C21C4F60001086820F00C0008602C2103
:1004D000C4F60001086840F00200086070470000A0
:1004E00081B00820C5F2040000688000002808D50B
:1004F000FFE70821C5F20401086820F000500860F9
:10050000FFE70821C5F20401086840F08050086048
:100510004FF4C8600090FFE7009820B1FFE7009813
:1005200001380090F8E701B07047000080B500F096
:100530002DF841F25801C4F20201086840F0005061
:10054000086047F20041C4F20001086820F0010091
:100550000860086820F001000860086840F0380072
:100560000860086820F00400086047F23C42C4F2CA
:100570000002106820F007001060086840F00100D9
:100580000860002000F018F880BD000041F24C0126
:10059000C4F20201086840F0010008604FF0904189
:1005A000086840F4407008600C21C4F60001086837
:1005B00020F440700860704781B0009000986FF39D
:1005C0001F3047F20841C4F20001086001B07047D3
:1005D00080B540F21440C4F2010000688004002895
:1005E00055D5FFE740F21441C4F20101086840F418
:1005F0000050086040F20000C2F2000000780128BC
:100600001DD1FFE740F26C00C2F20000016801F565
:1006100080710160006840F6FF7188420ED3FFE7E9
:1006200040F26C01C2F2000140F6FF70086040F237
:100630000001C2F2000100200870FFE71FE040F255
:100640006C00C2F200000068B0F5807F0DD8FFE7B3
:1006500040F26C01C2F200010020086040F200018B
:10066000C2F200010120087008E040F26C01C2F201
:1006700000010868A0F580700860FFE7FFE740F21E
:100680006C00C2F200000068FFF796FFFFE780BD34
:1006900080B582B041F24C01C4F20201086840F01A
:1006A0000400086040F60001C4F60001086820F06C
:1006B0004060086040F60C01C4F60001086820F0B4
:1006C0004060086041F26001C4F20201086840F035
:1006D000010008601421C4F20101086820F07000D4
:1006E0000860086840F02000086040F20C41C4F245
:1006F0000101086840F40050086040F20841C4F26B
:100700000101086820F40050086040F20041C4F282
:100710000101086840F4005008602820019000F0B2
:10072000ADF80198002100F0C1F802B080BD0000D2
:1007300041F24C01C4F20201086840F00100086077
:1007400041F25801C4F20201086840F0010008605B
:100750004FF09041086820F440600860086840F459
:10076000006008602021C4F60001086820F47000D1
:100770000860086840F4801008602821C4F2000175
:10078000002008602C22C4F2000240F6FF711160C4
:100790003421C4F2000108601821C4F20001086885
:1007A0004FF68F72CFF6FE7210400860086840F076
:1007B00060000860086840F0080008602021C4F26A
:1007C0000001086840F001000860086820F002009D
:1007D00008604FF08041086840F0800008600868B9
:1007E00040F001000860704782B001900198B0F5B8
:1007F000805F04D9FFE74FF480500190FFE7019834
:10080000B0F5805F04D1FFE740F6FF70009002E092
:1008100001980090FFE700983421C4F200010860BD
:1008200002B0704741F20001C4F20201086840F4CE
:1008300080700860FFE741F20000C4F20200006827
:100840004005002801D4FFE7F5E741F20801C4F2B2
:100850000201086820F003000860086840F0010009
:100860000860FFE741F20800C4F20200006810F0DF
:100870000C0F01D1FFE7F5E77047000081B08DF85C
:1008800003009DF9030000280ED4FFE79DF9031033
:1008900001F01F02012090404A094EF20011CEF2F1
:1008A000000141F82200FFE701B0704782B08DF8E7
:1008B000070000919DF9070000280AD4FFE700987F
:1008C00000019DF907104EF20042CEF2000288545A
:1008D0000BE0009800019DF8071001F00F014EF6A3
:1008E0001452CEF200028854FFE702B070470000B5
:1008F00080B582B000200190FFF794FFFFF756FD0E
:10090000FFF714FEFFF7C4FEFFF712FFFFE7082111
:10091000C5F20401086840F004000860FFE740F2F7
:100920000030C5F2040000684007002801D4FFE74A
:10093000F5E74020C5F20400016840F26800C2F209
:100940000000016090ED000AB8EE400A9FED081A21
:1009500020EE010A9FED071A20EE010A40F2700115
:10096000C2F2000181ED000A0068FFF73DFFCEE70B
:100970000000803933335340F1EE100A4FF6FF7117
:10098000C0F2C03120EA010040F04070E1EE100AF0
:1009900070470000B80900080000002008000000AF
:1009A000EC010008C00900080800002070060000E3
:1009B0000C02000800000000010000000000000020
:040000050800018965
:00000001FF
