:020000040800F2
:10000000680600203902000877020008790200081B
:100010007B0200087D0200087F020008000000004B
:100020000000000000000000000000008102000845
:100030008302000800000000850200088702000813
:100040008902000889020008890200088902000864
:100050008902000889020008890200088902000854
:100060008902000889020008890200088902000844
:100070008902000889020008890200088902000834
:100080008902000889020008890200088902000824
:100090008902000889020008890200088902000814
:1000A0008902000889020008890200088902000804
:1000B00089020008890200088902000889020008F4
:1000C00089020008890200088902000889020008E4
:1000D00089020008890200088902000889020008D4
:1000E00089020008890200088902000889020008C4
:1000F00089020008890200088902000889020008B4
:1001000089020008890200088902000889020008A3
:100110008902000889020008890200088902000893
:100120008902000889020008890200088902000883
:100130008902000889020008890200088902000873
:100140008902000889020008890200088902000863
:100150008902000889020008890200088902000853
:100160008902000889020008890200088902000843
:1001700089020008890200088902000800000000C6
:10018000890200088902000800F002F800F044F833
:1001900014A696E8000CB244B344DA4501D100F04D
:1001A0003BF8BAE80F000FA696E83000A5EB04056F
:1001B00004EB0607AAEB0704A7F101074FEA1515A0
:1001C0004FEA3414A4F10104AC4201D300F024F846
:1001D00013F0010F18BFFB1A43F0010300F001F800
:1001E000DBE71847340500004405000070470000B5
:1001F0000023002400250026103A28BF78C1FBD830
:10020000520728BF30C148BF0B6070471FB500F0D0
:1002100075FA1FBD10B510BD00F057F81146FFF775
:10022000F5FF00F02BFA00F075F803B4FFF7F2FFCA
:1002300003BC00F07DF8000017481849184B99429C
:100240003CBF50F8042B41F8042BF8D3154B16494A
:100250004FF000028B4238BF43F8042BFAD3DFF88B
:100260004C00016841F470010160BFF34F8FBFF390
:100270006F8F0F480047FEE7FEE7FEE7FEE7FEE769
:10028000FEE7FEE7FEE7FEE7FEE7000009480A4951
:100290000A4A0B4B704700002807000800000020A6
:1002A00000000020000000206806002088ED00E02B
:1002B000890100086800002068060020680200200C
:1002C00068020020704770477047754600F02CF8B0
:1002D000AE4605006946534620F00700854618B033
:1002E00020B5FFF7D3FFBDE820404FF000064FF0E8
:1002F00000074FF000084FF0000BAC46ACE8C00917
:10030000ACE8C009ACE8C009ACE8C00921F00701BD
:100310008D46704710B50446AFF300802046BDE817
:100320001040FFF782BF0000004870470000002027
:1003300001491820ABBEFEE726000200704700000E
:1003400041F26001C4F20201086840F00100086057
:100350000421C4F20101086840F48070086040F292
:100360000831C5F20401086840F48000086008689C
:1003700020F470100860086820F4403008600868B5
:1003800040F480300860086820F01F000860704763
:1003900080B582B041F24C01C4F20201086840F419
:1003A0000050086041F22C01C4F20201086840F4D8
:1003B00000500860086820F40050086000F064F8FD
:1003C000FFF7BEFF00F07EF80820C5F204000068C9
:1003D000C00788B1FFE70821C5F20401086840F0B2
:1003E00002000860FFE70820C5F204000068C007AB
:1003F00008B1FFE7F7E7FFE70C21C5F2040101911F
:10040000086820F018000860086820F020000860E4
:100410003022C5F20402106820F00F00106010684E
:1004200020F4F8601060106840F4C0701060B022D2
:10043000C5F20402106820F0400010601422C5F2DA
:100440000402106820F4E0101060106840F40020EE
:100450001060086820F400500860086820F44060CC
:1004600008600821C5F20401086840F00100086036
:10047000FFE70020C5F204000068C00708B9FFE7E5
:10048000F7E702B080BD000041F24C01C4F2020166
:10049000086840F0010008604FF09041086840F0A3
:1004A0000C0008600C21C4F60001086820F00C0064
:1004B00008602C21C4F60001086840F002000860C2
:1004C0007047000081B00820C5F204000068800079
:1004D000002808D5FFE70821C5F20401086820F0CC
:1004E00000500860FFE70821C5F20401086840F0E9
:1004F000805008604FF4C8600090FFE7009820B17A
:10050000FFE7009801380090F8E701B0704700005D
:1005100041F24C01C4F20201086840F00100086099
:1005200041F25801C4F20201086840F0010008607D
:100530004FF09041086820F440600860086840F47B
:10054000006008602021C4F60001086820F47000F3
:100550000860086840F4801008602821C4F2000197
:10056000012008602C21C4F2000140F6FF700860F1
:100570003421C4F20001002008601821C4F20001F7
:1005800008684FF68F72CFF6FE7210400860086858
:1005900040F060000860086840F008000860202112
:1005A000C4F20001086840F001000860086820F00B
:1005B000020008604FF08041086840F08000086049
:1005C000086840F0010008607047000082B00190A8
:1005D0000198B0F5805F04D9FFE74FF48050019097
:1005E000FFE70198B0F5805F04D1FFE740F6FF70A8
:1005F000009002E001980090FFE700983421C4F2D7
:100600000001086002B0704741F20001C4F202012B
:10061000086840F001000860FFE741F20000C4F202
:10062000020000688007002801D4FFE7F5E741F2E7
:100630000001C4F20201086820F0F00008600868B8
:1006400040F060000860086840F00800086041F26F
:100650000801C4F20201086820F00300086008687D
:100660000860FFE741F20800C4F20200006810F0E1
:100670000C0F01D0FFE7F5E77047000080B582B0AE
:1006800000200190FFF7C0FFFFF782FEFFF740FF59
:10069000FFE70821C5F20401086840F00400086083
:1006A000FFE740F20030C5F2040000684007002870
:1006B00001D4FFE7F5E74020C5F20400016840F2ED
:1006C0006000C2F20000016090ED000AB8EE400A3E
:1006D0009FED081A20EE010A9FED071A20EE010A8D
:1006E00040F26401C2F2000181ED000A0068FFF7E8
:1006F0006DFFCEE70000803933335340F1EE100A2E
:100700004FF6FF71C0F2C03120EA010040F04070A6
:10071000E1EE100A704700002807000800000020E2
:0807200068060000F00100086A
:040000050800018965
:00000001FF
